:0200000057297E
:10000600823083120313FC00DD30FD00FD0B09284E
:0A001600FC0B0928000000000800A0
:1000200083120313A201A30180302306F000803065
:100030007002031D1D2803302202031830282408F3
:10004000870003202908870003202A08870003204F
:100050002B08870003208701A20A0319A30A14288A
:02006000080096
:10006200103083120313A2000030A3008030F0008E
:10007200803023067002031D40282208003C03182A
:1000820054282B08880003202A0888000320290806
:100092008800032024088800032088010130A2027E
:0800A200031CA303372808002A
:1000AA0083120313A201A30180302306F0008030DB
:1000BA007002031D622810302202031875282408D2
:1000CA00880003202908880003202A0888000320C2
:1000DA002B08880003208801A20A0319A30A5928B9
:0200EA0008000C
:1000EC00033083120313A2000030A3008030F00011
:1000FC00803023067002031D85282208003C03185B
:10010C0099282B08870003202A0887000320290838
:10011C008700032024088700032087010130A202F6
:08012C00031CA3037C2808005A
:1001340083120313FB01FA01F9018030F800F10C7A
:10014400F00C031CAE287408F90775080318750F22
:10015400FA070318FB0A0310F01FB6287408FA07FD
:1001640075080318750FFB07FB0CFA0CF90CF80C57
:10017400031CA1287B08F3007A08F2007908F10037
:060184007808F0000800FD
:0E018A008312031321088A0020088200080057
:0C01980076205520102031207620080031
:1001A4001E3083120313A2000030A3008030F0003D
:1001B400803023067002031DE1282208003C031846
:1001C400F5282408870003202908870003202A082B
:1001D400870003202B088700032087010130A20237
:0801E400031CA303D828080046
:1001EC00C5208A110A128000840AA00A0319A10AE8
:0801FC00F003031DF6280800C2
:1002040083120313A501A60180302606F000803076
:100214007002031D0F290A30250203184C29A70177
:10022400A80180302806F00080307002031D1C29CC
:100234000A302702031846290A30F0000030F10082
:100244002508F4002608F5009A206530F0070130EF
:100254000318013EF1072708F00728080318013E98
:10026400F1077008A0007108A100C5208A110A12C4
:10027400F1007108013A031D4129CC20422976205E
:10028400A70A0319A80A1329D2205520A50A03197D
:06029400A60A062908007D
:10029A00831603178901880103138801FF3085003B
:0402AA0087010800C0
:1002AE00083083120313AB000430AA000230A900F9
:0C02BE000130A4004D21022162296429B6
:1002CA000034003400340134013401340034003481
:1002DA000034003400340034013400340034003473
:1002EA000134003400340034003401340034003462
:1002FA000034003400340134003400340134003452
:10030A000034003400340034003400340134003442
:10031A000134003400340034003400340034003432
:10032A000134003401340034003400340034003421
:10033A000034003401340034003401340034003411
:10034A000034003400340134003400340034003402
:10035A0001340034003400340134003400340034F1
:10036A0000340034003401340134013400340034E0
:10037A0000340034003400340034003400340034D3
:08038A0000340034003400349B
:04400E00F42B000788
:00000001FF
